{
  "contractName": "HelloWorld",
  "abi": [
    {
      "inputs": [],
      "stateMutability": "nonpayable",
      "type": "constructor"
    },
    {
      "inputs": [],
      "name": "greet",
      "outputs": [
        {
          "internalType": "string",
          "name": "",
          "type": "string"
        }
      ],
      "stateMutability": "view",
      "type": "function"
    },
    {
      "inputs": [],
      "name": "owner",
      "outputs": [
        {
          "internalType": "address",
          "name": "",
          "type": "address"
        }
      ],
      "stateMutability": "view",
      "type": "function"
    },
    {
      "inputs": [
        {
          "internalType": "string",
          "name": "greeting",
          "type": "string"
        }
      ],
      "name": "setGreeting",
      "outputs": [],
      "stateMutability": "nonpayable",
      "type": "function"
    },
    {
      "inputs": [
        {
          "internalType": "uint256",
          "name": "x",
          "type": "uint256"
        }
      ],
      "name": "revertTest",
      "outputs": [],
      "stateMutability": "pure",
      "type": "function"
    },
    {
      "inputs": [
        {
          "internalType": "uint256",
          "name": "y",
          "type": "uint256"
        }
      ],
      "name": "assertTest",
      "outputs": [],
      "stateMutability": "pure",
      "type": "function"
    }
  ],
  "bytecode": "0x60806040526040518060400160405280600c81526020017f48656c6c6f20576f726c64210000000000000000000000000000000000000000815250600090816200004a91906200031a565b503480156200005857600080fd5b5033600160006101000a81548173ffffffffffffffffffffffffffffffffffffffff021916908373ffffffffffffffffffffffffffffffffffffffff16021790555062000401565b600081519050919050565b7f4e487b7100000000000000000000000000000000000000000000000000000000600052604160045260246000fd5b7f4e487b7100000000000000000000000000000000000000000000000000000000600052602260045260246000fd5b600060028204905060018216806200012257607f821691505b602082108103620001385762000137620000da565b5b50919050565b60008190508160005260206000209050919050565b60006020601f8301049050919050565b600082821b905092915050565b600060088302620001a27fffffffffffffffffffffffffffffffffffffffffffffffffffffffffffffffff8262000163565b620001ae868362000163565b95508019841693508086168417925050509392505050565b6000819050919050565b6000819050919050565b6000620001fb620001f5620001ef84620001c6565b620001d0565b620001c6565b9050919050565b6000819050919050565b6200021783620001da565b6200022f620002268262000202565b84845462000170565b825550505050565b600090565b6200024662000237565b620002538184846200020c565b505050565b5b818110156200027b576200026f6000826200023c565b60018101905062000259565b5050565b601f821115620002ca5762000294816200013e565b6200029f8462000153565b81016020851015620002af578190505b620002c7620002be8562000153565b83018262000258565b50505b505050565b600082821c905092915050565b6000620002ef60001984600802620002cf565b1980831691505092915050565b60006200030a8383620002dc565b9150826002028217905092915050565b6200032582620000a0565b67ffffffffffffffff811115620003415762000340620000ab565b5b6200034d825462000109565b6200035a8282856200027f565b600060209050601f8311600181146200039257600084156200037d578287015190505b620003898582620002fc565b865550620003f9565b601f198416620003a2866200013e565b60005b82811015620003cc57848901518255600182019150602085019450602081019050620003a5565b86831015620003ec5784890151620003e8601f891682620002dc565b8355505b6001600288020188555050505b505050505050565b610ab880620004116000396000f3fe608060405234801561001057600080fd5b50600436106100575760003560e01c80631af887f71461005c5780637c63519e146100785780638da5cb5b14610094578063a4136862146100b2578063cfae3217146100ce575b600080fd5b6100766004803603810190610071919061032c565b6100ec565b005b610092600480360381019061008d919061032c565b610132565b005b61009c610147565b6040516100a9919061039a565b60405180910390f35b6100cc60048036038101906100c791906104fb565b61016d565b005b6100d6610254565b6040516100e391906105c3565b60405180910390f35b600a811161012f576040517f08c379a000000000000000000000000000000000000000000000000000000000815260040161012690610657565b60405180910390fd5b50565b600260011461014457610143610677565b5b50565b600160009054906101000a900473ffffffffffffffffffffffffffffffffffffffff1681565b600160009054906101000a900473ffffffffffffffffffffffffffffffffffffffff1673ffffffffffffffffffffffffffffffffffffffff163373ffffffffffffffffffffffffffffffffffffffff16146101fd576040517f08c379a00000000000000000000000000000000000000000000000000000000081526004016101f490610718565b60405180910390fd5b6000815111610241576040517f08c379a000000000000000000000000000000000000000000000000000000000815260040161023890610784565b60405180910390fd5b806000908161025091906109b0565b5050565b60008054610261906107d3565b80601f016020809104026020016040519081016040528092919081815260200182805461028d906107d3565b80156102da5780601f106102af576101008083540402835291602001916102da565b820191906000526020600020905b8154815290600101906020018083116102bd57829003601f168201915b505050505081565b6000604051905090565b600080fd5b600080fd5b6000819050919050565b610309816102f6565b811461031457600080fd5b50565b60008135905061032681610300565b92915050565b600060208284031215610342576103416102ec565b5b600061035084828501610317565b91505092915050565b600073ffffffffffffffffffffffffffffffffffffffff82169050919050565b600061038482610359565b9050919050565b61039481610379565b82525050565b60006020820190506103af600083018461038b565b92915050565b600080fd5b600080fd5b6000601f19601f8301169050919050565b7f4e487b7100000000000000000000000000000000000000000000000000000000600052604160045260246000fd5b610408826103bf565b810181811067ffffffffffffffff82111715610427576104266103d0565b5b80604052505050565b600061043a6102e2565b905061044682826103ff565b919050565b600067ffffffffffffffff821115610466576104656103d0565b5b61046f826103bf565b9050602081019050919050565b82818337600083830152505050565b600061049e6104998461044b565b610430565b9050828152602081018484840111156104ba576104b96103ba565b5b6104c584828561047c565b509392505050565b600082601f8301126104e2576104e16103b5565b5b81356104f284826020860161048b565b91505092915050565b600060208284031215610511576105106102ec565b5b600082013567ffffffffffffffff81111561052f5761052e6102f1565b5b61053b848285016104cd565b91505092915050565b600081519050919050565b600082825260208201905092915050565b60005b8381101561057e578082015181840152602081019050610563565b60008484015250505050565b600061059582610544565b61059f818561054f565b93506105af818560208601610560565b6105b8816103bf565b840191505092915050565b600060208201905081810360008301526105dd818461058a565b905092915050565b7f5265766572743a20496e707574206d757374206265206772656174657220746860008201527f616e203130000000000000000000000000000000000000000000000000000000602082015250565b600061064160258361054f565b915061064c826105e5565b604082019050919050565b6000602082019050818103600083015261067081610634565b9050919050565b7f4e487b7100000000000000000000000000000000000000000000000000000000600052600160045260246000fd5b7f4f6e6c7920746865206f776e65722063616e206163636573732074686973206660008201527f756e6374696f6e00000000000000000000000000000000000000000000000000602082015250565b600061070260278361054f565b915061070d826106a6565b604082019050919050565b60006020820190508181036000830152610731816106f5565b9050919050565b7f4772656574696e672073686f756c64206e6f7420626520656d70747900000000600082015250565b600061076e601c8361054f565b915061077982610738565b602082019050919050565b6000602082019050818103600083015261079d81610761565b9050919050565b7f4e487b7100000000000000000000000000000000000000000000000000000000600052602260045260246000fd5b600060028204905060018216806107eb57607f821691505b6020821081036107fe576107fd6107a4565b5b50919050565b60008190508160005260206000209050919050565b60006020601f8301049050919050565b600082821b905092915050565b6000600883026108667fffffffffffffffffffffffffffffffffffffffffffffffffffffffffffffffff82610829565b6108708683610829565b95508019841693508086168417925050509392505050565b6000819050919050565b60006108ad6108a86108a3846102f6565b610888565b6102f6565b9050919050565b6000819050919050565b6108c783610892565b6108db6108d3826108b4565b848454610836565b825550505050565b600090565b6108f06108e3565b6108fb8184846108be565b505050565b5b8181101561091f576109146000826108e8565b600181019050610901565b5050565b601f8211156109645761093581610804565b61093e84610819565b8101602085101561094d578190505b61096161095985610819565b830182610900565b50505b505050565b600082821c905092915050565b600061098760001984600802610969565b1980831691505092915050565b60006109a08383610976565b9150826002028217905092915050565b6109b982610544565b67ffffffffffffffff8111156109d2576109d16103d0565b5b6109dc82546107d3565b6109e7828285610923565b600060209050601f831160018114610a1a5760008415610a08578287015190505b610a128582610994565b865550610a7a565b601f198416610a2886610804565b60005b82811015610a5057848901518255600182019150602085019450602081019050610a2b565b86831015610a6d5784890151610a69601f891682610976565b8355505b6001600288020188555050505b50505050505056fea2646970667358221220c10e965dd5f77ef7d6b0fb32ec9d86bdcd0de09dfdd5494afef7a83f8b3d757364736f6c63430008110033",
  "immutableReferences": {},
  "source": "\n// SPDX-License-Identifier: MIT\n// compiler version must be greater than or equal to 0.8.17 and less than 0.9.0\npragma solidity ^0.8.17;\n\ncontract HelloWorld {\n    string public greet = \"Hello World!\";\n    address public owner; \n\n    constructor(){\n        owner = msg.sender;\n    }\n\n    function setGreeting(string memory greeting) public {\n        require(msg.sender == owner, \"Only the owner can access this function\");\n        require(bytes(greeting).length > 0, \"Greeting should not be empty\");\n        greet = greeting;\n    }\n\n    function revertTest(uint256 x) public pure{\n        if (x <= 10) {\n            revert(\"Revert: Input must be greater than 10\");\n        }\n    }\n    \n\n    function assertTest(uint256 y) public pure{\n        assert(1 == 2); // always triggers an assert and revert the transaction.\n    }\n}",
  "sourcePath": "/workspace/solidity_starter/contracts/HelloWorld.sol",
  "compiler": {
    "name": "solc",
    "version": "0.8.17+commit.8df45f5f.Emscripten.clang"
  },
  "schemaVersion": "3.4.16",
  "updatedAt": "2023-11-07T05:42:40.496Z",
  "devdoc": {
    "kind": "dev",
    "methods": {},
    "version": 1
  },
  "userdoc": {
    "kind": "user",
    "methods": {},
    "version": 1
  }
}